{
  "contractName": "Tickets",
  "abi": [
    {
      "inputs": [
        {
          "name": "cant",
          "type": "uint32"
        },
        {
          "name": "_price",
          "type": "uint256"
        }
      ],
      "payable": false,
      "stateMutability": "nonpayable",
      "type": "constructor"
    },
    {
      "constant": true,
      "inputs": [],
      "name": "disponibles",
      "outputs": [
        {
          "name": "",
          "type": "uint32"
        }
      ],
      "payable": false,
      "stateMutability": "view",
      "type": "function"
    },
    {
      "constant": true,
      "inputs": [],
      "name": "comprados",
      "outputs": [
        {
          "name": "",
          "type": "uint32"
        }
      ],
      "payable": false,
      "stateMutability": "view",
      "type": "function"
    },
    {
      "constant": false,
      "inputs": [
        {
          "name": "c",
          "type": "uint32"
        }
      ],
      "name": "comprar",
      "outputs": [],
      "payable": true,
      "stateMutability": "payable",
      "type": "function"
    }
  ],
  "bytecode": "0x608060405234801561001057600080fd5b506040516040806103cf8339810180604052810190808051906020019092919080519060200190929190505050816000806101000a81548163ffffffff021916908363ffffffff16021790555033600260006101000a81548173ffffffffffffffffffffffffffffffffffffffff021916908373ffffffffffffffffffffffffffffffffffffffff160217905550806003819055505050610319806100b66000396000f300608060405260043610610057576000357c0100000000000000000000000000000000000000000000000000000000900463ffffffff16806310e2f1d51461005c5780631b0402161461009357806347a13fd6146100ca575b600080fd5b34801561006857600080fd5b506100716100f0565b604051808263ffffffff1663ffffffff16815260200191505060405180910390f35b34801561009f57600080fd5b506100a8610132565b604051808263ffffffff1663ffffffff16815260200191505060405180910390f35b6100ee600480360381019080803563ffffffff169060200190929190505050610189565b005b6000806000809054906101000a900463ffffffff1663ffffffff16111561012a576000809054906101000a900463ffffffff16905061012f565b600090505b90565b6000600160003373ffffffffffffffffffffffffffffffffffffffff1673ffffffffffffffffffffffffffffffffffffffff16815260200190815260200160002060009054906101000a900463ffffffff16905090565b61019381346102b2565b151561019e57600080fd5b600260009054906101000a900473ffffffffffffffffffffffffffffffffffffffff1673ffffffffffffffffffffffffffffffffffffffff166108fc349081150290604051600060405180830381858888f19350505050158015610206573d6000803e3d6000fd5b50806000808282829054906101000a900463ffffffff160392506101000a81548163ffffffff021916908363ffffffff16021790555080600160003373ffffffffffffffffffffffffffffffffffffffff1673ffffffffffffffffffffffffffffffffffffffff16815260200190815260200160002060008282829054906101000a900463ffffffff160192506101000a81548163ffffffff021916908363ffffffff16021790555050565b600080836000809054906101000a900463ffffffff160363ffffffff161180156102e557508263ffffffff166003540282145b9050929150505600a165627a7a72305820a8e7a4c3de9dc13e0146eb683b509a7ca38f714ebf9c96a7a44a23d272d6337f0029",
  "source": "pragma solidity ^0.4.24;\n\ncontract Tickets{\n    \n    \n    uint32 cantidad;\n    mapping(address => uint32) compras;\n    address chairperson;\n    uint price;\n    \n    constructor(uint32 cant, uint _price) public {\n        cantidad = cant;\n        chairperson = msg.sender;\n        price = _price;\n    }\n    \n    function disponibles() view public returns (uint32){\n        if(cantidad>0){\n            return cantidad;\n        }\n        return 0;\n    }\n    \n    function suficientes(uint32 c, uint costo) view private returns (bool){\n        return (cantidad-c) > 0 && (costo == price*c);\n    }\n    \n    function comprados() view public returns(uint32){\n        return compras[msg.sender];\n    }\n    \n    function comprar(uint32 c) payable public {\n        require(suficientes(c, msg.value));\n        chairperson.transfer(msg.value);\n        cantidad -= c;\n        compras[msg.sender]+=c;\n    }\n}\n",
  "sourcePath": "/home/chrigarc/Documentos/Centraal/Ethereum/tickets/contracts/Tickets.sol",
  "compiler": {
    "name": "solc",
    "version": "0.4.24+commit.e67f0147.Emscripten.clang"
  },
  "schemaVersion": "2.0.1",
  "updatedAt": "2018-08-28T02:43:18.303Z"
}